:100000004BC0000070C000006EC000006CC000005B
:100010006AC0000068C0000066C0000064C0000044
:1000200062C0000060C000000C94211B5CC0000096
:10003000B5C0000058C0000056C0000054C0000009
:1000400052C000006AC000004EC000004CC000005A
:100050004AC0000048C0000046C000000C94D614FE
:1000600042C000002DC600005AC600003CC000007F
:100070003AC0000038C0000036C0000034C00000A4
:1000800032C0000030C000002EC000002CC00000B4
:100090002AC0000028C0000011241FBECFEFD0E20C
:1000A000DEBFCDBF14BE88E10FB6F8948093600028
:1000B000109260000FBE16E0A0E0B1E0EEEAF8E3B7
:1000C00000E00BBF02C007900D92A237B107D9F72D
:1000D00011E1A2E7B6E001C01D92A737B107E1F731
:1000E000AAD30C94551C8CCFFB01DC0102C00190FB
:1000F0000D9241505040D8F70895FB01DC018D91DD
:10010000019080190110D9F3990B0895FB01DC01CE
:1001100001900D920020E1F708951F920F920FB603
:100120000F9211248F939F938091A00A9091A10A1E
:1001300001969093A10A8093A00A9F918F910F90AE
:100140000FBE0F901F9018959C018091730681300F
:1001500011F4C9015CC6089580E091E0F5DF8BB130
:100160008F7080698BB9089585E191E0EDDF8BB1E7
:100170008F7080668BB908958CE291E0E5DF8BB1DA
:100180008F7080618BB910927206089580E491E0BF
:10019000DBDF8BB18F70806A8BB908951F920F924D
:1001A0000FB60F920BB60F9211242F933F934F93DC
:1001B0005F936F937F938F939F93AF93BF93EF93CF
:1001C000FF93809174068F5F80937406873130F0BF
:1001D00088E18093600082E591E0B6DFFF91EF91C6
:1001E000BF91AF919F918F917F916F915F914F914F
:1001F0003F912F910F900BBE0F900FBE0F901F904D
:100200001895982F80917306813011F4892FEAC5D3
:1002100008951F93182F82958F708A3010F0895A95
:1002200001C0805DEEDF812F90E08F709070212FF4
:100230002F700A971CF0822F895A02C0822F805D8E
:10024000E0DF80E2DEDF1F910895EF92FF920F93CF
:100250001F93CF93DF937C018B0184E691E074DFE1
:10026000C0E0D0E008C010927406F701EC0FFD1F4B
:100270008081B8D52196C017D107ACF38EE691E006
:1002800063DFDF91CF911F910F91FF90EF90089561
:10029000AF92BF92CF92DF92EF92FF920F931F9394
:1002A000DF93CF93CDB7DEB7C050D1400FB6F894EF
:1002B000DEBF0FBECDBFADB6BEB6809176118C301D
:1002C00009F0B4C082E08093A7008091AA008F7CDF
:1002D00080628093AA008091A9008F7B8093A900FF
:1002E000D5D5882359F58091A60085FD0EC0809153
:1002F000A600982F9B7F9093A6008F778093A600EF
:100300000E94781A882309F08CC08E010F5F1F4F5E
:10031000C80160E070E0C4D5BC01C8010E94A21A07
:10032000882319F081E791E00FDF8091A600982FD4
:100330009B7F9093A6008F778093A6008091A90061
:1003400080648093A90081E08093A7008091AA0037
:100350008F7C80618093AA008091A9008F7B80931D
:10036000A9008091A60080FF42C08091A90080640E
:100370008093A9008091A60085FF39C0DDB6CEB676
:100380000091F6001091F7000F3F110519F010F0E1
:100390000FEF10E08DB79EB7801B910B0FB6F8944E
:1003A0009EBF0FBE8DBF2DB73EB72F5F3F4FF22EC2
:1003B000E32EC901B8010E94D91A882319F086E8F2
:1003C00091E0C2DE8091A600982F9E7F9093A600B8
:1003D0008F778093A6008F2D9E2DB80180D52D2D6F
:1003E0003C2DC9010FB6F8949EBF0FBE8DBF809102
:1003F000A90080648093A90083E08093A700809186
:10040000A9008F7B8093A9008091A60080FF09C07E
:100410008091A600982F9E7F9093A6008F7780935F
:10042000A6008091A90080648093A9000FB6F8947B
:10043000BEBE0FBEADBEC050DF4F0FB6F894DEBFDC
:100440000FBECDBFCF91DF911F910F91FF90EF9025
:10045000DF90CF90BF90AF90089580917611882360
:1004600021F08B3009F03BC008C08BE991E06CDED5
:10047000809176118823E1F3089588EB91E064DEA2
:10048000AEE6B1E1E8ECF4E088E001900D92815035
:10049000E1F71092A70080E090E00E9463188823A3
:1004A00019F088ED91E050DE8DEF91E04DDE2BD319
:1004B000882379F0813019F489E192E002C08EE35B
:1004C00092E042DE8BB18F7080698BB91092761109
:1004D000089583E592E038DE8CE0809376110895EC
:1004E0000E94C5198BE692E02FDE8BB18F70806978
:1004F0008BB9FFCF0F931F93DF93CF93CDB7DEB7A9
:10050000C054D0400FB6F894DEBF0FBECDBF80916F
:1005100076118C3009F038C09DD490FD02C071DE98
:10052000FBCF8091A00A9091A10A8536910560F1D8
:100530001092A10A1092A00A80917506E82FF0E0AF
:10054000EE0FFF1FE654FB4F608171818F5F809338
:1005500075068E010F5F1F4FC801D8DDC8016DE71A
:1005600072E0CBDD009749F481E892E0EDDD109276
:10057000750681E08093720607C080E992E0E4DDB1
:10058000C801E2DDC801E2D4C05CDF4F0FB6F894C9
:10059000DEBF0FBECDBFCF91DF911F910F910895A8
:1005A000CF92DF92EF92FF920F931F93CF93DF933F
:1005B0000E94FB159093CC0E8093CB0E2FEF8F3FB4
:1005C000920751F482EA92E0BFDD1092A10A1092E4
:1005D000A00A109272068FC0892B09F458C087EBCD
:1005E00092E0B2DD26E0C22E2FE0D22EEE24FF24D0
:1005F00044C08601C0E0D0E09E012E0D3F1D8091D9
:10060000CB0E9091CC0E2817390740F4F801819158
:100610008F01FFDD2196C031D10571F78EE691E0A3
:1006200093DD8601C0E0D0E09E012E0D3F1D80913C
:10063000CB0E9091CC0E28173907B0F4F8018081C9
:1006400080528F3540F480E2DCDDF8018081D9DD15
:1006500080E2D7DD03C084EC92E076DD21960F5F67
:100660001F4FC031D10501F78EE691E06DDD80E1CD
:1006700090E0E80EF91EC80ED91E8091CB0E909125
:10068000CC0EE816F90608F4B4CF81E011C089EA6F
:100690009AE00E946C0C892BA9F089EA9AE00E94EA
:1006A000620C8AED9EE09093D90E8093D80E82E082
:1006B0000E94C50D8091CB0E9091CC0E892B11F02C
:1006C0000E940A1573D311E012C08132910531F4F2
:1006D00088EC92E09CD31093730608C08034910597
:1006E00029F485ED92E093D3109273065FD3E1E095
:1006F00080309E0751F7DF91CF911F910F91FF90AE
:10070000EF90DF90CF90089583EE92E061E470E087
:100710000C94AF0D8AE275DD8091D30E81FF03C08A
:1007200085E293E011DD8091D30E80FF03C08EE25D
:1007300093E00ADD8091D30E86FF03C085E393E04A
:1007400003DD8091D30E84FF0FC080E493E0FCDCD6
:1007500080E197E228EC30E0F9013197F1F7019759
:10076000D9F783E0809372068091D30E85FF0FC086
:1007700089E593E0E9DC80E197E228EC30E0F901DB
:100780003197F1F70197D9F783E080937206809152
:10079000D30E87FF12C084E793E0D6DC80E280931B
:1007A000D30E80E197E228EC30E0F9013197F1F7C0
:1007B0000197D9F783E0809372068091D30E83FF6F
:1007C0000FC08091A00A9091A10A895B9B4040F0E4
:1007D0001092A10A1092A00A8EE893E0B5DC94DF93
:1007E0008091D30E82FF04C08EE993E0ADDC8CDFF4
:1007F0008091D30E81FF09C06091CB0E7091CC0E19
:100800008091D60E9091D70E20DD9091D30E93FF5C
:1008100011C0E091AD0AF091AE0A818D84FF0AC04B
:1008200092609093D30EE091D80EF091D90E818D05
:100830008F7E818F08952F923F924F925F926F9299
:100840007F928F929F92AF92BF92CF92DF92EF9260
:10085000FF920F931F93CF93DF9380E090E020E807
:100860000FB6F89420936100809361000FBE89E178
:1008700090E082D2E6D28AB1806F8AB98BB18F7054
:100880008BB98BB18F7080668BB988E893E128ECC7
:1008900030E0F9013197F1F70197D9F78BB18F70FB
:1008A00080698BB988E893E128EC30E0F901319751
:1008B000F1F70197D9F78BB18F7080668BB90E94E1
:1008C000D71981EB93E0A3D2C0E0D0E008EC10E0B0
:1008D0008EE288D26BD2809739F481E080937306E0
:1008E0008AED93E094D20BC088E893E1F801319748
:1008F000F1F70197D9F72196C630D10549F78EE671
:1009000091E085D28DE0809381008EE490E0909319
:1009100089008093880082E080936F008BB18F7094
:100920008BB9A89588E18093600081E68093600090
:100930001092A10A1092A00AF0EBCF2EFAE0DF2E5F
:10094000E2E02E2E312C2C0C3D1C72E0E72E7FE0D5
:10095000F72E62E0462E512C4E0C5F1C50EC652E9B
:10096000712C40E2842E4AE0942E30EDA32E37E025
:10097000B32E0E94AC1B71DD8BDC8091720682303D
:1009800089F0833028F4882349F0813091F708C03A
:10099000833009F445C0843061F780C0ABDDE9CF16
:1009A0000BD6E7CF88EE93E0CFDB0E94FF140E94C6
:1009B000ED1489EA9AE06FE070E0A5D70E94210D5E
:1009C0001091AF0A00E02091A30A30E0202B312BD8
:1009D0003093B00AF6012183D091A20AC0E0809141
:1009E000A80A90E08C2B9D2B9093B20AF101818391
:1009F0003093020FF70121839093040FF20181835A
:100A00007092A50A6092A40A9092A70A8092A60A00
:100A1000F3E0F0937206B092A10AA092A00AA9CFC7
:100A20008091A00A9091A10A895E934008F4A1CF19
:100A30001092A10A1092A00A84EA9AE060E070E5A0
:100A40000E94350D9093AE0A8093AD0A892B69F010
:100A50008FEF93E079DB84E080937206E9EBFBE0B3
:100A6000F093A10AE093A00A03C083E194E06CDB59
:100A700087E294E069DBE091D80EF091D90E83898A
:100A8000C8DB80E494E060DBE091D80EF091D90EF1
:100A90008289BFDB8EE691E057DB6BCF81DD69CFCA
:100AA000FC018181843059F485818F3F41F4868136
:100AB0008F3F29F487818F3F11F480E0089582E011
:100AC0000895FC018181843059F485818F3F41F480
:100AD00086818F3F29F487818F3F11F480E008954C
:100AE00082E00895FC018181853039F4838183702F
:100AF0008250823030F480E00895843011F481E037
:100B0000089582E008955F926F927F928F929F92F4
:100B1000AF92BF92CF92DF92EF92FF920F931F930B
:100B2000DF93CF93CDB7DEB7C450D2400FB6F89461
:100B3000DEBF0FBECDBFAE014B5F5F4F5A8349830F
:100B40008E010D5F1F4F81E0B80120E032E00E946E
:100B5000FB1B853029F0863029F0882339F004C04A
:100B600082E097C083E095C081E093C0C8016E0128
:100B70000894C11CD11CB60140E555E00E94BE1B83
:100B8000882309F085C0FF244801560193E0592EBF
:100B90006624639482E0782EC401B50142E755E0F3
:100BA0000E94BE1B8823A1F1F3FE09C0C401B50158
:100BB00041E655E00E94BE1B882301F169C05092B6
:100BC000A7008091A9008E7F8093A9006092A70062
:100BD0008091A9008E7F8093A9007092A7008091D8
:100BE000A9008E7F8093A900C401B50140E555E0BE
:100BF0000E94BE1B882309F04BC0FF24C401B5012D
:100C000042E755E00E94BE1B882311F085E041C0F9
:100C1000C980DA80F601838183702281833079F480
:100C200027FF30C00481158163E040E1EE240E947B
:100C3000EA19F60186818093AD00F8E022C027FF13
:100C400016C0822F0E945A1A882329F08091A90089
:100C50008E7F8093A900F6010481158181E062E016
:100C600040E12281EE240E94EA19F2E00AC0F60176
:100C70000481158182E062E040E2EE240E94EA19DC
:100C8000F4E0FF2A8EE0F81609F086CF80E001C07C
:100C900084E0CC5FDD4F0FB6F894DEBF0FBECDBF52
:100CA000CF91DF911F910F91FF90EF90DF90CF9048
:100CB000BF90AF909F908F907F906F905F900895BE
:100CC0001F920F920FB60F920BB60F9211242F9313
:100CD0008F939F93EF93FF939091C8002091CE0044
:100CE000E0917808EF5F80917908E81711F482E0CD
:100CF00008C0892F8871E0937808F0E0EA58F84F2F
:100D0000208380937A08FF91EF919F918F912F918B
:100D10000F900BBE0F900FBE0F901F9018951F9253
:100D20000F920FB60F920BB60F9211248F939F93D1
:100D3000EF93FF939091760880917708981761F070
:100D4000E0917708EF5FE0937708F0E0EA58F94F19
:100D500080818093CE0005C08091C9008F7D8093F3
:100D6000C900FF91EF919F918F910F900BBE0F9053
:100D70000FBE0F901F9018959C011092760810924C
:100D80007708109278081092790897FF04C082E0E3
:100D90008093C8003F773093CD002093CC0088E942
:100DA0008093C90086E08093CA00089590917808E6
:100DB00080917908981719F420E031E011C0E09192
:100DC0007908EF5FE0937908F0E0EA58F84F308156
:100DD00020917A08922F80E0AC01430F511D9A01B7
:100DE000C9010895282F909176089F5F8091770818
:100DF0009817E1F3E92FF0E0EA58F94F2083909338
:100E000076088091C90080628093C9000895DC0152
:100E100014C0909176089F5F809177089817E1F34E
:100E20001196E92FF0E0EA58F94F20839093760865
:100E30008091C90080628093C9002C91222349F7D8
:100E4000089510927B0A10927C0A10927D0A1092EB
:100E50007E0A089590917D0A80917E0A981719F470
:100E600020E031E011C0E0917E0AEF5FE0937E0A5E
:100E7000F0E0E558F64F308120917F0A922F80E014
:100E8000AC01430F511D9A01C901089590917B0A4D
:100E900080917C0A20E0981709F421E0822F0895C0
:100EA000AC0120E030E00FC0E0917C0AEF5FE093FE
:100EB0007C0AF0E0E558F74F8081FA01E20FF31F5A
:100EC00080832F5F3F4F90917B0A80917C0A981717
:100ED00021F06F3F710541F33CF3C9010895AC0166
:100EE00020E030E016C0E0917D0AEF5F80917E0A3D
:100EF000E81719F422E030E011C0E0937D0AF0E039
:100F0000DA01A20FB31F8C91E558F64F80832F5F53
:100F10003F4F2617370738F320E030E0C901089526
:100F2000282F90917B0A9F5F80917C0A981731F45B
:100F300082E080937F0A80ED94E006C9E92FF0E01B
:100F4000E558F74F208390937B0A0895CF93DF9362
:100F5000EC0102C02196E4DF88818823D9F7DF9174
:100F6000CF910895D90120E22093BF0A5FEF2FEFC0
:100F70003FEF2527022E2295207F2025032E322F9A
:100F800022952F700226269532272327220F220F23
:100F9000220F20255093C00A53E02527022E2295C8
:100FA000207F2025032E322F22952F700226269592
:100FB00032272327220F220F220F20255093C10A08
:100FC0002927022E2295207F2025032E322F2295BD
:100FD0002F700226269532272327220F220F220F59
:100FE00020259093C20A2827022E2295207F2025B3
:100FF000032E322F22952F70022626953227232783
:10100000220F220F220F20258093C30A2627022EAB
:101010002295207F2025032E322F22952F70022625
:10102000269532272327220F220F220F2025609397
:10103000C40A2427022E2295207F2025032E322F3A
:1010400022952F700226269532272327220F220F62
:10105000220F20254093C50A80E02827022E2295E2
:10106000207F2025032E322F22952F7002262695D1
:1010700032272327220F220F220F20253093C10C65
:101080002093C00C1092C60A88E090E09093B60AB4
:101090008093B50A8C91482F50E04350504022C0B5
:1010A000415050408D912827022E2295207F2025E7
:1010B000032E322F22952F700226269532272327C2
:1010C000220F220F220F20253093C10C2093C00C39
:1010D000FB01E154F54F80836F5F7F4F7093B60A39
:1010E0006093B50A2091C00C3091C10C6091B50A93
:1010F0007091B60A4115510599F6A9014095509590
:10110000C9018427082E8295807F8025092E982F7B
:1011100082958F700826869598278927880F880FD3
:10112000880F8025FB01E154F54F40839B012F5F21
:101130003F4F8527082E8295807F8025092E982F86
:1011400082958F700826869598278927880F880FA3
:10115000880F80259093C10C8093C00CF901E15455
:10116000F54F50832F5F3F4F3093CA0E2093C90E27
:101170001092B60A1092B50A08950F931F93CF9359
:10118000DF93EC018091CB0C682F70E06C5F7F4F98
:1011900028E030E043E0A1E0B0E01FC0F901EC53EB
:1011A000F34F9081933021F48281823C09F44D7F8A
:1011B000892F90E00197FD0102C0EE0FFF1F8A9575
:1011C000E2F7CF018C239D23892B09F440E0F9013C
:1011D000EC53F34F8181280F311D26173707F0F2AA
:1011E00041FD3EC040FF02C0CBEFDFEF28E030E022
:1011F00048E050E001E010E027C0F901EC53F34F64
:10120000808190E00197D80102C0AA0FBB1F8A9588
:10121000E2F7CD018C239D23892B99F49181DF0185
:10122000FA01EC53F34F0AC08D9181934F5F5F4FEA
:101230002F5F3F4F2617370738F491509923A1F7B6
:1012400003C08181280F311D26173707B0F2842F84
:1012500084508093CB0C40E0CB5FDF4F09F441E03A
:10126000842FDF91CF911F910F9108959C01262724
:10127000022E2295207F2025032E322F22952F70BB
:101280000226269532272327220F220F220F202500
:10129000C90108958091C90E9091CA0E892B09F059
:1012A00057C08091BC0A8823D9F48091A00A9091FC
:1012B000A10A8D52914008F44BC088EE94E00E9440
:1012C000A4001092A10A1092A00A4091B90A4F5F9F
:1012D0004093B90A81E290EC61E02CEF34E01BC04E
:1012E0008130D1F48091A00A9091A10A85369105B0
:1012F00078F18CE095E00E94A4001092A10A10926F
:10130000A00A4091B90A4F5F4093B90A83E290EC7A
:1013100061E020E235E026CE8230D1F48091A00A4F
:101320009091A10A855F914098F084E295E00E9437
:10133000A4001092A10A1092A00A4091B90A4F5F2E
:101340004093B90A81E290E861E029E335E00ACEF2
:1013500008951F938091800A9091810A20EC813238
:10136000920709F078C08DE495E00E94A4001091E6
:10137000C80C133009F453C0143030F4113059F054
:10138000123009F05AC03AC0143009F44BC015307D
:1013900009F053C04EC01092830A86E595E00E9482
:1013A000A40087EC90E0E9DE90E00097A9F00197B7
:1013B00049F01093830A8BE595E00E94A40062E057
:1013C00070E010C080EC8093CE0C86E695E00E9421
:1013D000A40063E070E006C081E795E00E94A400ED
:1013E00064E070E01092A10A1092A00A81E290ECF1
:1013F0004091C90C2BEC3CE0B5DD1FC09091C90CAD
:101400008091B90A981741F48CE795E00E94A400F6
:1014100081E08093BA0A11C082E895E00CC084E9AB
:1014200095E002C08AE995E00E94A4001092BA0AF1
:1014300004C080EA95E00E94A4008091BA0A882343
:1014400009F4B4C08091830A882309F4AFC081E015
:101450008093BC0AABC020EC83329207D1F487EAB8
:1014600095E00E94A4001091C80C123041F0133096
:1014700069F0113009F09AC080EB95E095C08CE7D7
:1014800095E00E94A4001093BC0A90C084E995E006
:101490008BC020E88132920709F075C086EB95E099
:1014A0000E94A4001091C80C133009F43EC01430FF
:1014B00030F4113059F0123009F078C022C01430E5
:1014C00009F45BC0153009F071C05AC086E595E09B
:1014D0000E94A40084E090E050DE882339F08BE580
:1014E00095E00E94A40062E070E006C081E795E00C
:1014F0000E94A40064E070E081E290E84091C90C91
:1015000038C08CE795E00E94A4009091C90C8091AE
:10151000B90A981709F04AC080EC95E00E94A4002F
:101520001092BC0A1093720641C084E995E00E94B3
:10153000A4008091CE0C8093C80E8093AF0A809156
:10154000CF0C8093B40A8093A30A8091D00C80932F
:10155000BB0A8093A20A8091D10C8093C70E80931E
:10156000A80A4091B90A4F5F4093B90A81E290E816
:1015700061E02BEC3CE0F6DC19C08AE995E014C090
:1015800080EA95E011C08132910519F485ED95E06E
:101590000BC022EC8332920719F48EED95E004C063
:1015A000892B21F089EE95E00E94A4001092810A17
:1015B0001092800A1F9108952F923F924F925F924E
:1015C0006F927F928F929F92AF92BF92CF92DF9253
:1015D000EF92FF920F931F93CF93DF935BDEEE2486
:1015E000FF2432E0232E312C21E0422E512C90E2B8
:1015F000892E912C66246A94762C2CDC9C0190FD1B
:10160000DBC08E37910509F04CC08091BD0A9091E6
:10161000BE0A892B51F48EEF95E00E94A400C0E031
:10162000D0E081E0E82EF12C31C080E196E00E940C
:10163000A400E091BD0AF091BE0A2091B70A309152
:10164000B80A20953095EC53F34FD290CC24829178
:10165000A601480F511D2417350791F485E196E046
:101660000E94A400B090C60CAA248091C70C9501DA
:10167000280F311D3093810A2093800A6ADE04C04E
:101680008EE196E00E94A400C1E0D0E01092820AB0
:101690001092BE0A1092BD0A7092C60E6092C50EDC
:1016A000FBC08D37910521F431E03093820AA5CF3C
:1016B0000894E11CF11C8091820A882321F02825DE
:1016C00039251092820A8091BD0A9091BE0A892B19
:1016D00051F42F3F310539F04FEF4093C40C509235
:1016E000BE0A4092BD0A8091BD0A9091BE0A019740
:1016F00051F42330310539F053E05093C50C30924A
:10170000BE0A2092BD0A8091BD0A9091BE0A02973E
:1017100051F420FF08C01092C60C83E090E0909333
:10172000BE0A8093BD0A8091BD0A9091BE0A122F15
:10173000FC01EC53F34F208301969093BE0A8093F3
:10174000BD0A8150924030F040E052E05093BE0A12
:101750004093BD0A812F0E940901C7018F709070CC
:10176000892B21F480E396E00E94A4008091C20CB2
:101770009091C30C9093B80A8093B70A8091C50EDC
:101780009091C60E9093C30C8093C20C8127082EB3
:101790008295807F8025092E982F82958F7008264C
:1017A000869598278927880F880F880F8025909322
:1017B000C60E8093C50E21CF8091C90E9091CA0E9E
:1017C000009709F46CC02091B50A3091B60AF9016E
:1017D000E154F54FE0812817390769F41092CA0ED9
:1017E0001092C90E80E196E00E94A4000EE710E07E
:1017F000C1E0D0E04FC00E2F10E08091820A882314
:10180000A1F00894E11CF11C8E2F0E940901C70170
:101810008F709070892B21F480E396E00E94A400E1
:10182000082519251092820A2AC00032110534F0C9
:101830000D37110519F00E37110531F451E05093B1
:10184000820A0DE710E024C0232B51F483E396E0D5
:101850000E94A4001092820A0EE710E0EE24FF24FA
:101860000894E11CF11C802F0E940901C7018F70B0
:101870009070892B21F480E396E00E94A40080916F
:10188000B50A9091B60A01969093B60A8093B50A6C
:10189000C0E0D0E0802F44DBCD2B09F4AECEDF9149
:1018A000CF911F910F91FF90EF90DF90CF90BF905D
:1018B000AF909F908F907F906F905F904F903F90F0
:1018C0002F900895FC018081918122813381820FC4
:1018D000931F9183808308950F931F938C010E941F
:1018E000F71440E050E0F80120813181821B930B16
:1018F000228133818217930710F041E050E0CA0142
:101900001F910F9108950F931F938C01FC01738316
:1019100062830E94F714F801918380831F910F91D5
:101920000895FC015381560F5093D20E272F332771
:101930004281420F4093D10EA181A093D00EE0814D
:10194000E093CF0E842F90E08217930748F48A2FFC
:101950008F5F8093D00E882319F4EF5FE093CF0E52
:10196000852F90E070708617970790F4842F8F5F13
:101970008093D10E882361F48091D00E8F5F809385
:10198000D00E882329F48091CF0E8F5F8093CF0EE5
:1019900008959C0141505040460F571FFB010EC057
:1019A000708160E08181DB01A80FB11D2A0F3B1F10
:1019B0002A173B0710F42F5F3F4F3296E417F507C5
:1019C00078F3E417F50749F4908180E0280F391F78
:1019D0002817390710F42F5F3F4FC901089580E0A1
:1019E00090E066E07FE044E150E0D3DF009719F437
:1019F0002FEF3FEF02C0382F292FC90108950F9311
:101A00001F930091090F10E0045110409091080FAE
:101A100080E0080F191FC801069662E17FE048E0E8
:101A200050E0B7DF6AE17FE0A801B3DF009719F467
:101A30002FEF3FEF02C0382F292FC9011F910F91BF
:101A400008951092F90E1092F80E1092F30E80E0A5
:101A500094E09093910A8093900A109267111092EB
:101A6000661181E08093920A0895DC014091F30EA3
:101A7000E091DE0EF091DF0E2091900A3091910AF4
:101A80002F5F3F4F5DE72030350710F020E030E159
:101A9000922F832F442319F0E817F90789F3209335
:101AA000900A3093910A80E090E0442329F4109248
:101AB000920AEAEDFEE00AC0473011F48AED9EE09A
:101AC000FC0181E08093920A309779F182E0818F66
:101AD00080918C0A848780918D0A858780918E0AF7
:101AE000868780918F0A878780E392E0938B828B31
:101AF000958B848B81E090E0918B808B138E81E0BD
:101B0000828F83E0808F168A80E1878B34832583E0
:101B1000778366838D919C91119791838083129630
:101B20008D919C91139793838283CF010895BC017B
:101B30008091D80E9091D90E0896F3DEE091D80EE0
:101B4000F091D90E8091CF0E80878091D00E818741
:101B50008091D10E82878091D20E83870895AC0147
:101B6000FB011616170684F460936011F09361115F
:101B70002091CD0E3091CE0E8217930729F0C90126
:101B8000BA01AF010C94740008950F931F93CF9383
:101B9000DF93C091D80ED091D90E843009F4D4C10E
:101BA0002EE23FE03093D70E2093D60E3093CE0E28
:101BB0002093CD0E833059F4898D8F70833009F0D6
:101BC000EAC688899989892B09F0E5C689C08230DF
:101BD00009F08AC080918F0A8F5F80938F0A8823D3
:101BE00099F480918E0A8F5F80938E0A882361F426
:101BF00080918D0A8F5F80938D0A882329F48091CC
:101C00008C0A8F5F80938C0A1092CC0E1092CB0EB0
:101C10001092611110926011298D273011F025303A
:101C200041F48A8D8F5F8A8F883709F0B4C6198E88
:101C3000B2C6222309F4AFC688899989892B09F491
:101C40004BC08A8D81508A8F8F5F09F0A4C63B8D6F
:101C5000383029F02150223048F4353039F4198ECB
:101C600080E88093D30E0E948A0350C5353010F06F
:101C700080E307C083E090E002C0880F991F3A9587
:101C8000E2F78A8F8B8D8F5F8B8F898D90E08F70BD
:101C9000907083309105D1F08430910544F4813007
:101CA000910509F41FC3029709F075C60CC0863070
:101CB000910509F4BFC48830910509F4BBC40497A9
:101CC00009F069C6B7C41092270F0FC384E0809350
:101CD000D30E0E948A034FC52F70233009F05BC6D4
:101CE00088E08093D30E06C5853019F5E091D40EB7
:101CF000F091D50E84819581892B09F44CC6109200
:101D0000D90E1092D80EC9010C979093D70E8093DC
:101D1000D60E9093CE0E8093CD0E1092611110923C
:101D200060111092CC0E1092CB0E88E08093D30EEF
:101D300009C18901085210408091060F853409F0CD
:101D40002AC69091080F80E02091090FAC01420F44
:101D5000511D8091CB0E9091CC0E8417950708F4FD
:101D60001AC65093CC0E4093CB0E80910C0F90E08E
:101D70008F739070892B09F00EC680910D0F882308
:101D800009F009C62091020F3091030F80913F06A0
:101D9000909140062817390731F48091040F9091F3
:101DA000050F892BA1F08091160F9091170F8217C4
:101DB000930709F0F0C52091180F3091190F809109
:101DC000040F9091050F2817390709F0E4C507DEC5
:101DD0008F5F9F4F09F0DFC580910F0F863009F4A8
:101DE00008C18131D1F1813009F0D5C580911A0F38
:101DF000883009F0D0C510921A0F80911C0F909175
:101E00001D0FEFEF873F9E0710F0099601C008965F
:101E100090931D0F80931C0F8091120F9091130FC0
:101E20009093170F8093160F8091140F9091150FB8
:101E30009093190F8093180F8091020F9091030FC8
:101E40009093130F8093120F8091040F9091050FC0
:101E50009093150F8093140FA2C58091CB0E909193
:101E6000CC0E4C979093CC0E8093CB0E82E691E1F2
:101E70009093D50E8093D40E46C0248135812115D0
:101E80003105E1F180911C0F90911D0F821793078E
:101E9000A9F5268137812115310539F080911A0F76
:101EA00090911B0F8217930749F520813181809112
:101EB0003F06909140062817390721F482819381CB
:101EC000892B59F1809143069091440628173907D0
:101ED00029F4828193818F5F9F4FF9F08091120FD7
:101EE0009091130F8217930749F42091140F3091AA
:101EF000150F828193812817390779F03B96F0936B
:101F0000D50EE093D40EE091D40EF091D50E51E1B0
:101F1000ED36F50708F4B1CF3EC51092D90E1092F8
:101F2000D80E82E08093D30E82E29FE09093D70E8A
:101F30008093D60E9093CE0E8093CD0E10926111A9
:101F4000109260110E948A032091601130916111FA
:101F50002115310509F41FC5C9014C969093CC0E8B
:101F60008093CB0E9093080F8093090FE091D40ECD
:101F7000F091D50E808580930E0F81E180930F0F35
:101F8000C901089690931E0F80931F0F1092210F86
:101F90001092200F8481958190931B0F80931A0FCC
:101FA0008681978190931D0F80931C0F8091020F63
:101FB0009091030F9093130F8093120F8091040F51
:101FC0009091050F9093150F8093140F808191814C
:101FD0009093170F8093160F828193819093190F1E
:101FE0008093180F8EE29FE09093D70E8093D60EC9
:101FF000B0C405DD8F5F9F4F09F0CDC4CAEDDEE0B0
:10200000898D882329F120911C0F30911D0F8C811F
:102010009D8128173907E1F420911A0F30911B0F89
:102020008E819F812817390799F42091120F3091E2
:10203000130F888199812817390751F42091140FC3
:102040003091150F8A819B812817390709F465C1E2
:102050006E96FEE0CA3DDF0799F290F28091270F5D
:102060008F738230F1F480911C0F90911D0F90932B
:10207000950A8093940A1092920A41E00EC0209132
:10208000940A3091950A8091F80E9091F90E2817D4
:10209000390709F470C04093920A8091920A88230C
:1020A00071F38091270F82FD76C484E1F80181A34A
:1020B00088E290E09093CC0E8093CB0E80E580A3D5
:1020C0009091210F8091250F838F3091200F809167
:1020D000240F828F368F40911F0F8091230F818FA5
:1020E000458F20911E0F2093920A8091220F808F9E
:1020F000248F9F5F978F992361F4832F8F5F868F43
:10210000882339F4842F8F5F858F882311F42F5F04
:10211000248F20911A0F30911B0F3093950A209332
:10212000940A80911C0F90911D0FF801958B848B60
:10213000378B268B8091120F9091130F9093170F6E
:102140008093160F8091140F9091150F9093190F93
:102150008093180F8091020F9091030F9093130FAB
:102160008093120F8091040F9091050F9093150F9B
:102170008093140FD4C31092920AC0E0D0E021E003
:1021800014C08091F30E882319F4CAEDDEE014C068
:10219000873049F4209729F09091F40E8A8D8917A1
:1021A00010F4CAEDDEE02093920A8091920A88230F
:1021B00041F3209709F4EFC3D093D90EC093D80E02
:1021C00083E08A8F888F1E8A84E08F8B1B8E80919C
:1021D0001C0F90911D0F9D838C8380911A0F9091FD
:1021E0001B0F9F838E838091120F9091130F998301
:1021F00088838091140F9091150F9B838A8381E0CF
:10220000898F80918C0A8C8780918D0A8D8780912F
:102210008E0A8E8780918F0A8F8781E090E0998B5C
:10222000888B8091210F8B878091200F8A878091E6
:102230001F0F898780911E0F888781E090E077DCEF
:102240008091260F90E0807F9070813591050CF48D
:1022500049C01092920A34C0F901EA5FF04F80A59C
:102260008093930A8823F1F1813021F44F5F4093EA
:10227000920A26C08230C1F481A58430A9F432A527
:1022800020E083A590E0822B932B9093950A809376
:10229000940AF2E081339F0710F080E392E09B8B79
:1022A0008A8B9D8B8C8B1EC09091920AE92FF0E057
:1022B000EA5FF04F81A58823A9F0890F8093920AE5
:1022C0004091920A242F30E08091260F82958F70E2
:1022D00090E00597880F991F880F991F28173907D5
:1022E0000CF4BACF80E18093270F8091270F826092
:1022F0008093270F92E090932E0F84E080932F0F0E
:102300009093300F80E38093310F8CE290E09093B4
:10231000CC0E8093CB0E80E6AFC2D093D90EC09383
:10232000D80E1092D30E8091270F482F50E082FFD5
:1023300003C0198E80E24CC28091260F82958F7067
:10234000880F880F8093920A2091CB0E3091CC0E8B
:1023500024513040281B31093093CC0E2093CB0EF2
:10236000898D8F70823029F44F735070423151053E
:1023700009F1232B39F48091270F90E0837090703E
:10238000892BC1F090911E0F8885981709F06AC2B9
:1023900090911F0F8985981709F064C29091200FC2
:1023A0008A85981709F05EC29091210F8B85981746
:1023B00009F058C28091270F84FF50C0688979893D
:1023C0006115710509F44AC0CE010C96AADA209174
:1023D000220F8091CF0E281709F040C09091230F53
:1023E0008091D00E9817D1F59091240F8091D10E45
:1023F0009817A1F59091250F8091D20E981771F53D
:102400002C878091D00E8D878091D10E8E87809100
:10241000D20E8F878B8D8823D1F42E89988D8A8D4B
:10242000981B822F869586958695981B392F320F9B
:102430003E8B8F89282F26952695821B97FD919597
:10244000890F8F8B369536953695830F888F81E06F
:102450008093D30E888D8A8F198A188A898D282FA8
:1024600030E0C9018F7090708430910509F4B5C1D6
:10247000853091055CF48230910589F183309105B6
:102480000CF0AFC0019709F086C210C086309105EC
:1024900009F4E0C1863091050CF4BEC18730910586
:1024A00009F4E0C1089709F076C28CC18091D30E7F
:1024B00080FF71C283E0898F80E48093D30E198AF4
:1024C000188A2091CB0E3091CC0E2115310509F4DC
:1024D0000DC182E48093D30EC90129DB07C180912D
:1024E000D30E80FF73C08091270F8F73823109F064
:1024F0006DC08091260F90E0807F907081359105AE
:102500000CF449C01092920A34C0F901EA5FF04F0E
:1025100080A58093930A8823F1F1813021F44F5FE5
:102520004093920A26C08230C1F481A58430A9F478
:1025300032A520E083A590E0822B932B9093950AFF
:102540008093940A22E08133920710F080E392E0B6
:102550009B8B8A8B9D8B8C8B1EC09091920AE92F4E
:10256000F0E0EA5FF04F81A58823A9F0890F8093FE
:10257000920A4091920A242F30E08091260F829592
:102580008F7090E00597880F991F880F991F281763
:1025900039070CF4BACF83E0898F80911E0F8887AA
:1025A00080911F0F89878091200F8A878091210F4A
:1025B0008B8781E090E0BBDA82E48093D30E198AA6
:1025C000188A1092CC0E1092CB0E90C080E28093AD
:1025D000D30E0E948A03E091D80EF091D90E118E8D
:1025E00060CD8091270F80FF29C024FD27C08889F6
:1025F0009989892B09F0CFC18091CB0E9091CC0E97
:10260000019695DA2091D30E822F80618093D30EAC
:102610008091CB0E9091CC0E892B19F022612093E2
:10262000D30E0E948A0381E090E0998B888B88E02A
:10263000898F1B8E81E18093270F17C185FF21C0F1
:1026400060912C0F362F20E040912D0F50E0242B6D
:10265000352B8091D60E9091D70E820F931F9093B9
:10266000D70E8093D60E962F80E0842B952B209149
:10267000CB0E3091CC0E281B390B3093CC0E20930F
:10268000CB0E2091CB0E3091CC0E2115310551F09F
:10269000898D84FD07C08091D30E82608093D30E14
:1026A000C90145DA9091280F80E02091290F820F0F
:1026B000911D9093950A8093940A2C893D8928173F
:1026C000390710F0892B21F43093950A2093940A4E
:1026D0008091940A9091950A9B8B8A8B8091D30E5E
:1026E00090E083709070892B09F455C110926111AC
:1026F000109260110E948A038091D30E282F85FFCB
:1027000007C01092611110926011198E84E193CF6D
:1027100084FF0AC0109261111092601181E090E074
:10272000998B888B84E084CF8091601190916111A6
:10273000892B01F120FF02C0198A188A888999899A
:102740000097A1F42A893B898091601190916111D1
:102750002817390720F4309361112093601180917C
:10276000601190916111998B888B04C090936111D5
:10277000809360111B8E8091CD0E9091CE0E909320
:10278000D70E8093D60E8091601190916111892BA4
:1027900059F088899989009739F088969093CC0EE2
:1027A0008093CB0E88E10BC08091D30E81FFF3C0E4
:1027B00088E290E09093CC0E8093CB0E80E18093E2
:1027C000270F59C08091D30E80FFE5C0198E80E19C
:1027D0008093D30E0E948A03DEC08091CB0E90912D
:1027E000CC0E009709F0A3D98091270F9091D30EBA
:1027F00080FF0BC090FF06C087E0898F1A8E198A70
:10280000188A18C086E0898F15C090FF1CC085E02B
:10281000898F198A188ABFC08091CB0E9091CC0EF7
:10282000009709F084D98091270F80FF0CC087E0C2
:10283000898F1A8E81E090E07AD980E18093D30E5F
:102840000E948A030FC08091CB0E9091CC0E892BF1
:1028500049F4A1C08091D30E80FF9DC087E0898F8D
:102860001A8E99C080E1F80181A388E290E09093EC
:10287000CC0E8093CB0E80E58093260F88858093C5
:10288000220F89858093230F8A858093240F8B855F
:102890008093250F8C8580931E0F8D8580931F0F4D
:1028A0008E858093200F8F858093210F86E0809303
:1028B0000F0F8C819D8190931B0F80931A0F8E8137
:1028C0009F8190931D0F80931C0F8091020F909118
:1028D000030F9093130F8093120F8091040F909128
:1028E000050F9093150F8093140F88819981909311
:1028F000170F8093160F8A819B819093190F8093F5
:10290000180F898D84FF05C01092290F1092280F8F
:1029100006C082E08093280F80E38093290F80E433
:1029200080930E0F8091CC0E8093080F8091CB0E78
:102930008093090F10922D0F10922C0F10922B0FD5
:1029400010922A0F5CD88095909590932B0F8093CE
:102950002A0F85E48093060F1092070F10920D0F37
:1029600010920C0F80918A0A90918B0A0196909395
:102970008B0A80938A0A90930A0F80930B0F109210
:10298000110F1092100F2BD8809590959093110FE6
:102990008093100F04C01092CC0E1092CB0E1092A8
:1029A000D30EDF91CF911F910F9108951F920F9237
:1029B0000FB60F9211248F939F938091960A909156
:1029C000970A01969093970A8093960A9F918F9108
:1029D0000F900FBE0F901F901895EEE6F0E08081EB
:1029E0008160808385B5856085BD78940895F8946D
:1029F0002091960A3091970A7894C901089510920F
:102A00009C0A10929B0A10929A0A1092980A1092AD
:102A1000990A0895AF92BF92CF92DF92EF92FF9200
:102A20000F931F93CF93DF931092990A1092980AF5
:102A300087E496E00E94A40096E0A92E9FE0B92EBC
:102A40006501EE24FF244BC08601C0E0D0E09E016A
:102A50002E0D3F1D8091CB0E9091CC0E281739077B
:102A600048F4F80181918F010E9409012196C0313B
:102A7000D10569F781E596E00E94A4008601C0E0D7
:102A8000D0E09E012E0D3F1D8091CB0E9091CC0E7B
:102A900028173907D0F4F801808180528F3558F417
:102AA00080E20E940101F80180810E94010180E220
:102AB0000E94010104C084E596E00E94A4002196D2
:102AC0000F5F1F4FC031D105E1F681E596E00E940E
:102AD000A40080E190E0E80EF91EC80ED91E809196
:102AE000CB0E9091CC0EE816F90608F4ADCF8EE728
:102AF0000E9490078FEF0E9490078FEF9FEF6FEF7C
:102B00000E9436098C0183E00E949007C80163E0AF
:102B10000E9436098C0180E00E949007C80160E0A5
:102B20000E9436098C0181E20E949007C80161E28F
:102B30000E9436098C01C0E0D0E080E2F82E23C06C
:102B4000F5019081892F8D57823038F48DE70E94EE
:102B50009007F50180818F2501C0892F0E94900781
:102B6000C801F50160810E9436098C01CE018F7386
:102B70009070892B21F4209711F00E944801219632
:102B80000894A11CB11C8091CB0E9091CC0EC8175B
:102B9000D907B0F2E801C095D095CE0190708D575D
:102BA0009040029730F48DE70E94900780E28C27D6
:102BB00001C08C2F0E949007CE0180509D4780500D
:102BC000924030F48DE70E94900780E28D2701C08B
:102BD0008D2F0E9490078EE70E9490070E94480167
:102BE000DF91CF911F910F91FF90EF90DF90CF90E9
:102BF000BF90AF9008950F931F93CF93DF930E94E0
:102C00002A079C0190FD76C001E010E2CFEFDFEFD4
:102C10009091990A992369F48091980A882349F43C
:102C20002E37310531F40093980A10929C0A1092C5
:102C30009B0A8091980A8130B9F42132310549F418
:102C40001092980A8093990AD0939C0AC0939B0A89
:102C500043C080919B0A90919C0A0197E9F5232B30
:102C6000D9F12FEF3FEF48C09130B1F52D37310545
:102C700061F490939A0A80919B0A90919C0A019723
:102C800090939C0A80939B0A27C080919A0A813076
:102C900061F410929A0AE0919B0AF0919C0AEA5F13
:102CA000F04F822F8127808317C02E37310569F4BA
:102CB0001092990A81E596E00E94A40020919B0A57
:102CC00030919C0A2250304017C0E0919B0AF0914D
:102CD0009C0AEA5FF04F208380919B0A90919C0AA6
:102CE000019690939C0A80939B0A0E942A079C015C
:102CF00090FF8ECF20E030E0C901DF91CF911F918E
:102D00000F910895982F20919E0080919E008160E0
:102D100080939E0026C080919F0085FF06C0809111
:102D20009F008F7D80939F0091508091761182301B
:102D300011F491E018C08091A60084FF07C0809133
:102D4000A6008F7E8093A60092E00DC08091A60021
:102D500081FF07C08091A6008D7F8093A60093E03D
:102D600002C09923C1F620FD05C080919E008E7F90
:102D700080939E00892F089530919E008091A0003D
:102D80008D7F8093A00080919E00826080939E0042
:102D900080919E0081FDFCCF80919E008160809398
:102DA0009E0080919F008F7D80939F002AE040EDE0
:102DB00057E080919F0085FF0BC080919F008F7D21
:102DC00080939F0080919F008D7F80939F0005C01E
:102DD000CA010197F1F7215061F730FD05C08091DC
:102DE0009E008E7F80939E008091A00082608093E1
:102DF000A0000895EF920F931F93DF93CF93CDB769
:102E0000DEB728970FB6F894DEBF0FBECDBF809116
:102E10007611863009F494C0873070F48330C1F1A4
:102E2000843020F4813009F019C113C08430C1F11D
:102E3000853009F013C15BC0883009F49BC088302D
:102E400008F48AC0893009F4B4C08A3009F006C198
:102E5000E8C000919E0A10919F0A0115110509F41E
:102E6000FDC081E04FDF682F882331F080919D0AFB
:102E70008093761191E0EEC0C801019790939F0A6C
:102E800080939E0A892B09F0E9C080919D0ACFC0EA
:102E90008CED95E090939F0A80939E0A84E0C7C0D2
:102EA00080919E0A90919F0A019790939F0A809328
:102EB0009E0A019629F080ED97E00197F1F7CEC0C8
:102EC00077988091D80080618093D8008091DD0050
:102ED0008B7F8093DD008091D70080618093D70045
:102EE0008091DD0082608093DD0085E0A0C080914C
:102EF0009F0080FFB3C080919F008E7F80939F00D2
:102F000080919F008D7F80939F008091DF008D7F57
:102F10008093DF008091DE0082608093DE008091EC
:102F20009E00816080939E0097D281E0809376110D
:102F300084E690E090939F0A80939E0A86E06EC09C
:102F40001BDF81E08093761188EC90E090939F0ADC
:102F500080939E0A87E062C080E060E040E020E06D
:102F600000E410E0EE2436D28091AC0087FF70C000
:102F700088E05DC0AEE6B1E1E8E6F6E088E0019009
:102F80000D928150E1F7CE0101969DD0682F8823E4
:102F900009F05CC0888580937006EEDE81E0809346
:102FA000761188EC90E090939F0A80939E0A89E0C6
:102FB00035C08091A9008E7F8093A9008091AB00DD
:102FC0008D7F8093AB0081E08093A8001092A800D1
:102FD0000091700680E060E040E020E010E0EE2428
:102FE000F9D18091AC0087FF33C0AEE6B1E1E0E6F5
:102FF000F6E088E001900D928150E1F780E090E0EA
:1030000062D0682F882311F581E08093761184E6E1
:1030100090E090939F0A80939E0A8AE080939D0A95
:103020001DC081E08093A1000E94B4008BE08093DA
:10303000761114C0892F0E94AC008091DD00816060
:103040008093DD000E94BC0055D108C093E002C00F
:1030500094E060E080917611823061F728960FB697
:10306000F894DEBF0FBECDBFCF91DF911F910F91BE
:10307000EF9008951F93CF93DF93182FC8EED3E0FE
:1030800009C081E03FDE8823D1F4209711F484E069
:1030900016C02197112329F48091A60083FFF1CF58
:1030A0000DC0113029F48091A60080FFEACF06C040
:1030B000123039F78091A60082FFE3CF80E0DF91E4
:1030C000CF911F910895FF920F931F93CF93DF939A
:1030D000182F092FF0909E00C0917411D091751196
:1030E00080919E00816080939E0081E00BDE282FFE
:1030F000882309F0E7C08091AA008F7C8093AA0002
:103100001092F5008091A9008F7B8093A900EEE6D4
:10311000F1E181918093AF0081E1E637F807C9F7CB
:103120008091A600982F977F9093A6008F77809329
:10313000A60080E09FDF282F882309F0C3C080917C
:10314000A90080648093A90081E0DCDD282F88231A
:1031500009F0B8C0212F302FC9018C0180916E1168
:1031600087FF5AC08091AA008F7C80618093AA005B
:103170000115110589F532C08091A9008F7B8093DC
:10318000A90081E077DF282F882309F09BC0809178
:10319000F6009091F700892B49F4C0E0D0E006C01A
:1031A0008091AF00F80181938F0121978091F60003
:1031B0009091F700892B11F0209791F78091A90049
:1031C00080648093A9008091A600982F9E7F9093A1
:1031D000A6008F778093A600209771F68091AA00B1
:1031E0008F7C80628093AA008091A9008F7B80935E
:1031F000A90082E03FDF282F882309F063C0809177
:10320000A600982F9B7F9093A6008F778093A600AF
:1032100082E030DF282F56C001151105D1F18091D1
:10322000AA008F7C80628093AA008091A9008F7B86
:103230008093A90022C082E01DDF282F882309F097
:1032400041C080917006282F30E007C0F8018191BD
:103250008F018093AF00219739F08091F600909113
:10326000F7008217930790F38091A600982F9B7F19
:103270009093A6008F778093A6002097E1F682E0D6
:10328000F9DE282F8823F1F48091A90080648093CF
:10329000A9008091AA008F7C80618093AA00809110
:1032A000A9008F7B8093A90081E0E4DE282F88238A
:1032B00049F48091A600982F9E7F9093A6008F7767
:1032C0008093A6008091A90080648093A900F0FCFF
:1032D00005C080919E008E7F80939E0081E0809348
:1032E000A8001092A800822FDF91CF911F910F911B
:1032F000FF90089595D19ED182E0809376118CE065
:1033000089BD89B5826089BD09B400FEFDCF809179
:10331000D800982F9F779093D80080688093D8002A
:103320008091D70081608093D7008091D8008F7DF5
:103330008093D8008091E0008E7F8093E0008091A0
:10334000D80080648093D8008091DD0081608093F4
:10335000DD008091D8008F7E8093D8008091DD00C1
:1033600084608093DD008091D7008F7E8093D700AA
:103370006F9A779A8091DE0081608093DE00809161
:10338000DE0084608093DE000895B4DFE0EEF0E0BC
:10339000808181608083E8EDF0E080818F77808399
:1033A00019BC80818F7E808310926D11089580E416
:1033B00080937006E7EDF0E080818F7780839ADF5D
:1033C000E8EDF0E080818061808381E080936D1181
:1033D00078940895EF920F931F939E2D8093A700EA
:1033E0008091A90081608093A9001092AB00629542
:1033F000660F660F607C642B2F70622B6093AA00AF
:103400000930110510F480E015C00131110510F4E8
:1034100080E110C00132110510F480E20BC00134CC
:10342000110510F480E306C00138110510F080E5A5
:1034300001C080E49260892B8093AB008091A90049
:1034400080628093A9008091AC00881F8827881F24
:103450001F910F91EF9008951092F80020E030E056
:1034600041E050E0CA01022E02C0880F991F0A9461
:10347000E2F78093A8001092A8002093A700109272
:10348000AE001092A6008091A6008F7E8093A600C9
:103490001092F5008091AB008D7F8093AB008091FE
:1034A000A9008E7F8093A9002F5F3F4F2730310501
:1034B000C9F608953091A70020E0482F50E02093EE
:1034C000A7008091AC0087FF0BC08091AA0090E01C
:1034D000842795278F709070892B11F481E00895CF
:1034E0002F5F273061F737703093A70080E0089591
:1034F00094E68091AA008073803129F48091A6001F
:1035000080FF05C01DC08091A60082FD19C080917A
:10351000A60081FF02C081E008958091761182307B
:1035200081F080919F0085FFE4CF80919F008F7D87
:1035300080939F00992311F483E008959150D9CF8F
:1035400080E00895FF920F931F93CF93DF93182F7E
:10355000092FEB018091AA008F7C80628093AA00E2
:10356000C7DFF82E8823F1F4812F902F9C01890169
:1035700017C08091A60085FD0DC08091A600982FF0
:103580009B7F9093A6008F778093A600B1DF88235E
:1035900039F009C0F80181918F018093AF00219724
:1035A000209739F78F2DDF91CF911F910F91FF90C9
:1035B0000895FF920F931F93CF93DF93182F092F36
:1035C000EB018091AA008F7C80618093AA0090DF3C
:1035D000F82E8823F1F4812F902F9C01890117C0C8
:1035E0008091A60085FD0DC08091A600982F9E7F3A
:1035F0009093A6008F778093A6007ADF882339F016
:1036000009C08091AF00F80181938F012197209725
:1036100039F78F2DDF91CF911F910F91FF90089572
:10362000E8EDF0E080818C7F80831092A000109202
:10363000DE0008951092DA0010929F001092DF00D1
:1036400008951F920F920FB60F920BB60F9211248E
:103650002F933F934F935F936F937F938F939F939A
:10366000AF93BF93EF93FF9380919F0081FF16C0AC
:103670008091A00081FF12C080919F008D7F809378
:103680009F0080919F008E7F80939F008091A0007B
:103690008D7F8093A0000E94BC002CDE8091DF0013
:1036A00081FF17C08091DE0081FF13C08091DF0091
:1036B0008D7F8093DF0077988091DD00816080931B
:1036C000DD0080E00E9470020E94BC0082E08093D6
:1036D00076118091DF0080FF18C08091DE0080FFAE
:1036E00014C08091DF008E7F8093DF008091DE0028
:1036F0008E7F8093DE000E94C6008091A0008260D1
:103700008093A00083E0809376118091DF0082FF98
:1037100010C08091DE0082FF0CC08091DF008B7FA3
:103720008093DF0082E060E00E94AC000E94BC0059
:10373000E1DDFF91EF91BF91AF919F918F917F91CB
:103740006F915F914F913F912F910F900BBE0F9012
:103750000FBE0F901F901895FF920F931F9307EACB
:1037600010E0F801F080F7E0FF22F801108242DB60
:10377000F801F0821F910F91FF900895AF92BF92D0
:10378000CF92DF92EF92FF920F931F93CF93DF932D
:103790006C018B015A011DC0F801C081D1812881C3
:1037A00030E0CE01820F931F91838083A701421BDB
:1037B000530BF60151834083F5010995823049F09E
:1037C000813071F4F801C083D183F601F182E08287
:1037D00007C0F601E080F180E114F104E9F682E02F
:1037E000DF91CF911F910F91FF90EF90DF90CF90DD
:1037F000BF90AF900895CF92DF92EF92FF920F9318
:103800001F93DF93CF93CDB7DEB729970FB6F89408
:10381000DEBF0FBECDBF6B018A01790190E89093A6
:103820006E1196E090936F1190E0019792609093E3
:10383000711180937011109273111092721189E0BE
:1038400090E090937511809374111092A700CE01AF
:10385000019639DC282F8823C1F48B819C81F601E5
:1038600091838083E816F90610F425E00EC090934A
:10387000751180937411C80126DC282F882329F440
:10388000F8018181823009F026E0822F29960FB657
:10389000F894DEBF0FBECDBFCF91DF911F910F9186
:0E38A000FF90EF90DF90CF900895F894FFCF47
:1038AE00456E756D65726174696F6E206661696CC7
:1038BE0065640D0A00456E756D65726174696F6E93
:1038CE0020636F6D706C6574650D0A0044657669D2
:1038DE00636520556E61747461636865640D0A00DA
:1038EE004465766963652041747461636865640D2F
:1038FE000A005761746368646F67207265626F6F48
:10390E00740D0A000D0A446174613A0D0A000D0A25
:10391E00004572726F722077726974696E672050FB
:10392E006970650D0A004572726F7220726561646E
:10393E00696E6720506970650D0A00576169746978
:10394E006E6720666F7220646576696365207265A6
:10395E006D6F76616C0D0A0053656E64696E67203B
:10396E00636F6E66696775726174696F6E20636FDF
:10397E006D6D616E640D0A00436F6E74726F6C2014
:10398E004572726F72202853657420436F6E66699C
:10399E006775726174696F6E292E0D0A004C6F6F18
:1039AE006B696E6720666F72206D6F64656D206443
:1039BE0065766963652E2E2E00436F6E74726F6C82
:1039CE00204572726F72202847657420436F6E66B1
:1039DE00696775726174696F6E292E0D0A004E6FDC
:1039EE00742061206D6F64656D2064657669636512
:1039FE000D0A004344432044657669636520456E95
:103A0E00756D6572617465640D0A00486F7374207C
:103A1E004D6F6465204572726F720D0A00505050E2
:103A2E00005374617274696E67205050500D0A0015
:103A3E0053656E64696E6720636F6D6D616E643A77
:103A4E002000476F74206E6F6E2D505050207061A5
:103A5E00636B65740D0A000D0A52656365697665C0
:103A6E003A0D0A00202E20000D0A4465627567206B
:103A7E006F6E0D0A000D0A4465627567206F6666EB
:103A8E000D0A00474554202F20485454502F312EF4
:103A9E00310D0A486F73743A207777772E65786107
:103AAE006D706C652E636F6D0D0A436F6E6E656380
:103ABE0074696F6E3A204B6565702D416C69766541
:103ACE000D0A0D0A004E6577446174612000416352
:103ADE006B65642000436F6E6E65637465642000D1
:103AEE00436C6F736564202D205265636F6E6E6537
:103AFE006374696E672E2E2E0041626F7274656458
:103B0E00202D205265636F6E6E656374696E672E2D
:103B1E002E2E200054696D656F7574202D20526510
:103B2E00636F6E6E656374696E672E2E2E000D0ABE
:103B3E0053656E64696E67204745540D0A000D0A81
:103B4E0052657472616E736D6974204745540D0A27
:103B5E00000D0A555342204D6F64656D202D205087
:103B6E007265737320737061636520626172207475
:103B7E006F2064656275670D0A000D0A44656275F3
:103B8E006767696E670D0A00496E697469616C69D1
:103B9E0073652054435020537461636B0D0A0043C8
:103BAE006F6E6E656374656420746F20686F7374D6
:103BBE000D0A004661696C656420746F20436F6E58
:103BCE006E6563740D0A004D6178696D756D2053D5
:103BDE0065676D656E742053697A653A203078009A
:103BEE0030780041540D0A00415426460D0A00411A
:103BFE00542B43504D533D22534D222C22534D22D4
:103C0E002C22220D0A0041545130205631204531CC
:103C1E002053303D302026433120264432202B467F
:103C2E00434C4153533D300D0A0041542B434744FE
:103C3E00434F4E543D312C224950222C2233736572
:103C4E00727669636573222C2C302C300D0A00417C
:103C5E005444542A3939230D0A00430448044F04AE
:103C6E0066048A04AF047D02000901000000000012
:103C7E004D6F64656D20427566666572204F766580
:103C8E0072666C6F770D0A000D0A4D616B696E6777
:103C9E00204C4350205061636B6574001201040583
:103CAE00A00206000A000007020802000D0A4D617C
:103CBE006B696E6720504150205061636B657400D4
:103CCE00060000000D0A4D616B696E672049504376
:103CDE0050205061636B65740016030600000000EF
:103CEE0081060000000083060000000000476F748C
:103CFE00204C4350200052455120002D2057652066
:103D0E0041434B0D0A002D205765204E414B0D0AA5
:103D1E00002D2057652052454A0D0A0041434B0D98
:103D2E000A004F7574206F662073796E63204143CD
:103D3E004B0D0A004E414B0D0A0052454A0D0A002A
:103D4E005445524D0D0A00476F74205041502000CB
:103D5E005245510D0A00476F7420495043502000C0
:103D6E002A2A4C494E4B20434F4E4E454354454410
:103D7E002A2A0D0A00476F742049500D0A00476F1A
:103D8E007420434841500D0A00476F7420756E6BC6
:103D9E006E6F776E207061636B65740D0A000D0A8D
:103DAE000D0A526563656976653A0D0A376520001E
:103DBE0037650D0A00435243204F4B0D0A002A2A45
:103DCE002A2042414420435243202A2A2A0D0A0027
:103DDE000D0A000D0A0D0A53656E643A0D0A0000B5
:103DEE00000000FFFFFFFF0D0A53656E643A0D0AD7
:103DFE00000D0A00202E2000800600010000120097
:103E0E00000501000000000080060001000008000F
:023E1E00400062
:00000001FF
